{
  "contractName": "Haftpflicht",
  "abi": [
    {
      "inputs": [],
      "payable": false,
      "stateMutability": "nonpayable",
      "type": "constructor"
    },
    {
      "constant": false,
      "inputs": [
        {
          "name": "c",
          "type": "address"
        },
        {
          "name": "i",
          "type": "address"
        }
      ],
      "name": "initContractBetween",
      "outputs": [],
      "payable": false,
      "stateMutability": "nonpayable",
      "type": "function"
    },
    {
      "constant": true,
      "inputs": [],
      "name": "getBiker",
      "outputs": [
        {
          "name": "",
          "type": "address"
        }
      ],
      "payable": false,
      "stateMutability": "view",
      "type": "function"
    },
    {
      "constant": true,
      "inputs": [],
      "name": "getCoverageDescription",
      "outputs": [
        {
          "name": "",
          "type": "string"
        }
      ],
      "payable": false,
      "stateMutability": "view",
      "type": "function"
    },
    {
      "constant": true,
      "inputs": [],
      "name": "getInsuranceCompany",
      "outputs": [
        {
          "name": "",
          "type": "address"
        }
      ],
      "payable": false,
      "stateMutability": "view",
      "type": "function"
    },
    {
      "constant": true,
      "inputs": [],
      "name": "getMaximumAmountOfCoverage",
      "outputs": [
        {
          "name": "",
          "type": "uint256"
        }
      ],
      "payable": false,
      "stateMutability": "view",
      "type": "function"
    },
    {
      "constant": true,
      "inputs": [],
      "name": "getInsurancePeriod",
      "outputs": [
        {
          "name": "",
          "type": "uint256"
        }
      ],
      "payable": false,
      "stateMutability": "view",
      "type": "function"
    }
  ],
  "bytecode": "0x608060405234801561001057600080fd5b50610530806100206000396000f300608060405260043610610078576000357c0100000000000000000000000000000000000000000000000000000000900463ffffffff16806359d64d051461007d578063817c620d146100e05780638c0729fb1461010b578063a3e0c07514610162578063a6f6ea9d146101b9578063ad23973f146101e4575b600080fd5b34801561008957600080fd5b506100de600480360381019080803573ffffffffffffffffffffffffffffffffffffffff169060200190929190803573ffffffffffffffffffffffffffffffffffffffff169060200190929190505050610274565b005b3480156100ec57600080fd5b506100f5610356565b6040518082815260200191505060405180910390f35b34801561011757600080fd5b50610120610360565b604051808273ffffffffffffffffffffffffffffffffffffffff1673ffffffffffffffffffffffffffffffffffffffff16815260200191505060405180910390f35b34801561016e57600080fd5b50610177610389565b604051808273ffffffffffffffffffffffffffffffffffffffff1673ffffffffffffffffffffffffffffffffffffffff16815260200191505060405180910390f35b3480156101c557600080fd5b506101ce6103b3565b6040518082815260200191505060405180910390f35b3480156101f057600080fd5b506101f96103bd565b6040518080602001828103825283818151815260200191508051906020019080838360005b8381101561023957808201518184015260208101905061021e565b50505050905090810190601f1680156102665780820380516001836020036101000a031916815260200191505b509250505060405180910390f35b816000806101000a81548173ffffffffffffffffffffffffffffffffffffffff021916908373ffffffffffffffffffffffffffffffffffffffff16021790555080600160006101000a81548173ffffffffffffffffffffffffffffffffffffffff021916908373ffffffffffffffffffffffffffffffffffffffff1602179055506107d06003819055506040805190810160405280600b81526020017f426c6120626c6120626c610000000000000000000000000000000000000000008152506002908051906020019061034992919061045f565b5060066004819055505050565b6000600454905090565b60008060009054906101000a900473ffffffffffffffffffffffffffffffffffffffff16905090565b6000600160009054906101000a900473ffffffffffffffffffffffffffffffffffffffff16905090565b6000600354905090565b606060028054600181600116156101000203166002900480601f0160208091040260200160405190810160405280929190818152602001828054600181600116156101000203166002900480156104555780601f1061042a57610100808354040283529160200191610455565b820191906000526020600020905b81548152906001019060200180831161043857829003601f168201915b5050505050905090565b828054600181600116156101000203166002900490600052602060002090601f016020900481019282601f106104a057805160ff19168380011785556104ce565b828001600101855582156104ce579182015b828111156104cd5782518255916020019190600101906104b2565b5b5090506104db91906104df565b5090565b61050191905b808211156104fd5760008160009055506001016104e5565b5090565b905600a165627a7a72305820e9e96079e7b8012c901c1e99d77ddca90daa8de9c01696023e2e6961cfd416c10029",
  "source": "pragma solidity ^0.4.24;\ncontract Haftpflicht {\n /* Define variable owner of the type address*/\n address biker;\n address insuranceCompany;\n string coverageDescription;\n uint maximumAmountOfCoverage;\n uint insurancePeriod;\n\n /* this function is executed at initialization and sets bikerAdress in the contract */\n\n constructor() public { \n   \n  }\n \n function initContractBetween(address c, address i) public {\n    biker = c;\n    insuranceCompany = i; \n    maximumAmountOfCoverage = 2000;\n    coverageDescription = \"Bla bla bla\";\n    insurancePeriod = 6;\n }\n \n   function getBiker() public constant returns (address) {\n    return biker;\n }\n   function getCoverageDescription() public constant returns (string) {\n    return coverageDescription;\n }\n   function getInsuranceCompany() public constant returns (address) {\n    return insuranceCompany;\n }\n  function getMaximumAmountOfCoverage() public constant returns (uint) {\n    return maximumAmountOfCoverage;\n }\n   function getInsurancePeriod() public constant returns (uint) {\n    return insurancePeriod;\n }\n}",
  "sourcePath": "c:\\Tools\\BlockchainMobility\\supercrispy\\truffle\\contracts\\Haftpflicht.sol",
  "compiler": {
    "name": "solc",
    "version": "0.4.24+commit.e67f0147.Emscripten.clang"
  },
  "schemaVersion": "2.0.1",
  "updatedAt": "2018-07-22T10:15:25.285Z"
}