{
  "contractName": "haftpflicht",
  "abi": [
    {
      "inputs": [
        {
          "name": "bikerAdress",
          "type": "address"
        }
      ],
      "payable": false,
      "stateMutability": "nonpayable",
      "type": "constructor"
    },
    {
      "constant": true,
      "inputs": [],
      "name": "getBiker",
      "outputs": [
        {
          "name": "",
          "type": "address"
        }
      ],
      "payable": false,
      "stateMutability": "view",
      "type": "function"
    },
    {
      "constant": true,
      "inputs": [],
      "name": "getCoverageDescription",
      "outputs": [
        {
          "name": "",
          "type": "string"
        }
      ],
      "payable": false,
      "stateMutability": "view",
      "type": "function"
    },
    {
      "constant": true,
      "inputs": [],
      "name": "getInsuranceCompany",
      "outputs": [
        {
          "name": "",
          "type": "address"
        }
      ],
      "payable": false,
      "stateMutability": "view",
      "type": "function"
    },
    {
      "constant": true,
      "inputs": [],
      "name": "getMaximumAmountOfCoverage",
      "outputs": [
        {
          "name": "",
          "type": "uint256"
        }
      ],
      "payable": false,
      "stateMutability": "view",
      "type": "function"
    },
    {
      "constant": true,
      "inputs": [],
      "name": "getInsurancePeriod",
      "outputs": [
        {
          "name": "",
          "type": "uint256"
        }
      ],
      "payable": false,
      "stateMutability": "view",
      "type": "function"
    }
  ],
  "bytecode": "0x608060405234801561001057600080fd5b506040516020806104c583398101806040528101908080519060200190929190505050806000806101000a81548173ffffffffffffffffffffffffffffffffffffffff021916908373ffffffffffffffffffffffffffffffffffffffff1602179055506107d06003819055506040805190810160405280600b81526020017f426c6120626c6120626c61000000000000000000000000000000000000000000815250600290805190602001906100c79291906100d6565b5060066004819055505061017b565b828054600181600116156101000203166002900490600052602060002090601f016020900481019282601f1061011757805160ff1916838001178555610145565b82800160010185558215610145579182015b82811115610144578251825591602001919060010190610129565b5b5090506101529190610156565b5090565b61017891905b8082111561017457600081600090555060010161015c565b5090565b90565b61033b8061018a6000396000f30060806040526004361061006d576000357c0100000000000000000000000000000000000000000000000000000000900463ffffffff168063817c620d146100725780638c0729fb1461009d578063a3e0c075146100f4578063a6f6ea9d1461014b578063ad23973f14610176575b600080fd5b34801561007e57600080fd5b50610087610206565b6040518082815260200191505060405180910390f35b3480156100a957600080fd5b506100b2610210565b604051808273ffffffffffffffffffffffffffffffffffffffff1673ffffffffffffffffffffffffffffffffffffffff16815260200191505060405180910390f35b34801561010057600080fd5b50610109610239565b604051808273ffffffffffffffffffffffffffffffffffffffff1673ffffffffffffffffffffffffffffffffffffffff16815260200191505060405180910390f35b34801561015757600080fd5b50610160610263565b6040518082815260200191505060405180910390f35b34801561018257600080fd5b5061018b61026d565b6040518080602001828103825283818151815260200191508051906020019080838360005b838110156101cb5780820151818401526020810190506101b0565b50505050905090810190601f1680156101f85780820380516001836020036101000a031916815260200191505b509250505060405180910390f35b6000600454905090565b60008060009054906101000a900473ffffffffffffffffffffffffffffffffffffffff16905090565b6000600160009054906101000a900473ffffffffffffffffffffffffffffffffffffffff16905090565b6000600354905090565b606060028054600181600116156101000203166002900480601f0160208091040260200160405190810160405280929190818152602001828054600181600116156101000203166002900480156103055780601f106102da57610100808354040283529160200191610305565b820191906000526020600020905b8154815290600101906020018083116102e857829003601f168201915b50505050509050905600a165627a7a723058208335a29e7d725522c122e4ce09a2d33cb5a04dc0ab46639af3c302f1b3d474310029",
  "source": "pragma solidity ^0.4.24;\r\ncontract haftpflicht {\r\n /* Define variable owner of the type address*/\r\n address biker;\r\n address insuranceCompany;\r\n string coverageDescription;\r\n uint maximumAmountOfCoverage;\r\n uint insurancePeriod;\r\n\r\n /* this function is executed at initialization and sets bikerAdress in the contract */\r\n\r\n constructor(address bikerAdress) public { \r\n    biker = bikerAdress;\r\n    maximumAmountOfCoverage = 2000;\r\n    coverageDescription = \"Bla bla bla\";\r\n    insurancePeriod = 6;\r\n }\r\n   function getBiker() public constant returns (address) {\r\n    return biker;\r\n }\r\n   function getCoverageDescription() public constant returns (string) {\r\n    return coverageDescription;\r\n }\r\n   function getInsuranceCompany() public constant returns (address) {\r\n    return insuranceCompany;\r\n }\r\n  function getMaximumAmountOfCoverage() public constant returns (uint) {\r\n    return maximumAmountOfCoverage;\r\n }\r\n   function getInsurancePeriod() public constant returns (uint) {\r\n    return insurancePeriod;\r\n }\r\n}",
  "sourcePath": "C:\\Users\\mdt\\Truffle\\contracts\\Haftpflicht.sol",
  "compiler": {
    "name": "solc",
    "version": "0.4.24+commit.e67f0147.Emscripten.clang"
  },
  "schemaVersion": "2.0.1",
  "updatedAt": "2018-07-22T07:59:46.784Z"
}