{
  "contractName": "Mietvertrag",
  "abi": [
    {
      "inputs": [],
      "payable": false,
      "stateMutability": "nonpayable",
      "type": "constructor"
    },
    {
      "constant": false,
      "inputs": [
        {
          "name": "_biker",
          "type": "address"
        },
        {
          "name": "_lordOfBikes",
          "type": "address"
        },
        {
          "name": "_duration",
          "type": "uint256"
        }
      ],
      "name": "initContractBetween",
      "outputs": [],
      "payable": false,
      "stateMutability": "nonpayable",
      "type": "function"
    }
  ],
  "bytecode": "0x608060405234801561001057600080fd5b5061016c806100206000396000f300608060405260043610610041576000357c0100000000000000000000000000000000000000000000000000000000900463ffffffff1680638508fde614610046575b600080fd5b34801561005257600080fd5b506100b1600480360381019080803573ffffffffffffffffffffffffffffffffffffffff169060200190929190803573ffffffffffffffffffffffffffffffffffffffff169060200190929190803590602001909291905050506100b3565b005b826000806101000a81548173ffffffffffffffffffffffffffffffffffffffff021916908373ffffffffffffffffffffffffffffffffffffffff16021790555081600160006101000a81548173ffffffffffffffffffffffffffffffffffffffff021916908373ffffffffffffffffffffffffffffffffffffffff160217905550806002819055505050505600a165627a7a7230582038283d15e3046dc7ed2e121568457d3971fa31b82140142b870f68edf27949180029",
  "source": "pragma solidity ^0.4.23;\n\ncontract Mietvertrag {\n  address  biker;\n  address  lordOfBikes;\n  uint duration;\n\n\n  \n  constructor() public {\n  }\n\n  function initContractBetween(address _biker, address _lordOfBikes, uint _duration) public {\n    biker = _biker;\n    lordOfBikes = _lordOfBikes;\n    duration = _duration;\n  }\n\n}\n",
  "sourcePath": "c:\\Tools\\BlockchainMobility\\supercrispy\\truffle\\contracts\\Mietvertrag.sol",
  "compiler": {
    "name": "solc",
    "version": "0.4.24+commit.e67f0147.Emscripten.clang"
  },
  "schemaVersion": "2.0.1",
  "updatedAt": "2018-07-22T10:15:55.134Z"
}