{
  "contractName": "Schadenincident",
  "abi": [
    {
      "inputs": [],
      "payable": false,
      "stateMutability": "nonpayable",
      "type": "constructor"
    },
    {
      "constant": true,
      "inputs": [],
      "name": "getLiabilityAddress",
      "outputs": [
        {
          "name": "",
          "type": "address"
        }
      ],
      "payable": false,
      "stateMutability": "view",
      "type": "function"
    },
    {
      "constant": true,
      "inputs": [],
      "name": "damageSums",
      "outputs": [
        {
          "name": "",
          "type": "uint256"
        }
      ],
      "payable": false,
      "stateMutability": "view",
      "type": "function"
    }
  ],
  "bytecode": "0x60806040526101f460015534801561001657600080fd5b50610129806100266000396000f3006080604052600436106049576000357c0100000000000000000000000000000000000000000000000000000000900463ffffffff1680633d48593414604e578063d88e77591460a2575b600080fd5b348015605957600080fd5b50606060ca565b604051808273ffffffffffffffffffffffffffffffffffffffff1673ffffffffffffffffffffffffffffffffffffffff16815260200191505060405180910390f35b34801560ad57600080fd5b5060b460f3565b6040518082815260200191505060405180910390f35b60008060009054906101000a900473ffffffffffffffffffffffffffffffffffffffff16905090565b60006001549050905600a165627a7a72305820def543f615a75043618601e2551cbd7139360afa72440be8469474b4c26e749f0029",
  "source": "pragma solidity ^0.4.24;\ncontract Schadenincident {\n /* Define variable of this contracts attributes*/\n address liability;\n uint damageSum = 500;\n\n /* this function is executed at initialization and sets bikerAdress in the contract */\n\n constructor() public { \n }\n    function getLiabilityAddress() public constant returns (address) {\n    return liability;\n }\n    function damageSums() public constant returns (uint) {\n    return damageSum;\n }\n}\n",
  "sourcePath": "c:\\Tools\\BlockchainMobility\\supercrispy\\truffle\\contracts\\SchadenIncident.sol",
  "compiler": {
    "name": "solc",
    "version": "0.4.24+commit.e67f0147.Emscripten.clang"
  },
  "schemaVersion": "2.0.1",
  "updatedAt": "2018-07-22T09:22:25.187Z"
}